{
  "contractName": "PayByLocation",
  "abi": [
    {
      "inputs": [
        {
          "internalType": "address",
          "name": "",
          "type": "address"
        }
      ],
      "name": "employees",
      "outputs": [
        {
          "internalType": "string",
          "name": "name",
          "type": "string"
        },
        {
          "internalType": "uint256",
          "name": "distance",
          "type": "uint256"
        },
        {
          "internalType": "uint256",
          "name": "registeredAt",
          "type": "uint256"
        },
        {
          "internalType": "uint256",
          "name": "contractEnd",
          "type": "uint256"
        },
        {
          "internalType": "int256",
          "name": "lat",
          "type": "int256"
        },
        {
          "internalType": "int256",
          "name": "lng",
          "type": "int256"
        },
        {
          "internalType": "bool",
          "name": "comply",
          "type": "bool"
        },
        {
          "internalType": "bool",
          "name": "paid",
          "type": "bool"
        }
      ],
      "stateMutability": "view",
      "type": "function"
    },
    {
      "inputs": [
        {
          "internalType": "uint256",
          "name": "",
          "type": "uint256"
        }
      ],
      "name": "employeesAddress",
      "outputs": [
        {
          "internalType": "address",
          "name": "",
          "type": "address"
        }
      ],
      "stateMutability": "view",
      "type": "function"
    },
    {
      "inputs": [
        {
          "internalType": "address",
          "name": "_employeeAddress",
          "type": "address"
        },
        {
          "internalType": "string",
          "name": "_name",
          "type": "string"
        },
        {
          "internalType": "uint256",
          "name": "_allowedDistance",
          "type": "uint256"
        },
        {
          "internalType": "uint256",
          "name": "_contractEnd",
          "type": "uint256"
        },
        {
          "internalType": "int256",
          "name": "_lat",
          "type": "int256"
        },
        {
          "internalType": "int256",
          "name": "_lng",
          "type": "int256"
        }
      ],
      "name": "addEmployee",
      "outputs": [],
      "stateMutability": "nonpayable",
      "type": "function"
    },
    {
      "inputs": [
        {
          "internalType": "uint256",
          "name": "index",
          "type": "uint256"
        }
      ],
      "name": "getEmployee",
      "outputs": [
        {
          "components": [
            {
              "internalType": "string",
              "name": "name",
              "type": "string"
            },
            {
              "internalType": "uint256",
              "name": "distance",
              "type": "uint256"
            },
            {
              "internalType": "uint256",
              "name": "registeredAt",
              "type": "uint256"
            },
            {
              "internalType": "uint256",
              "name": "contractEnd",
              "type": "uint256"
            },
            {
              "internalType": "int256",
              "name": "lat",
              "type": "int256"
            },
            {
              "internalType": "int256",
              "name": "lng",
              "type": "int256"
            },
            {
              "internalType": "bool",
              "name": "comply",
              "type": "bool"
            },
            {
              "internalType": "bool",
              "name": "paid",
              "type": "bool"
            }
          ],
          "internalType": "struct PayByLocation.Employee",
          "name": "",
          "type": "tuple"
        }
      ],
      "stateMutability": "view",
      "type": "function"
    },
    {
      "inputs": [],
      "name": "getEmployees",
      "outputs": [
        {
          "components": [
            {
              "internalType": "string",
              "name": "name",
              "type": "string"
            },
            {
              "internalType": "uint256",
              "name": "distance",
              "type": "uint256"
            },
            {
              "internalType": "uint256",
              "name": "registeredAt",
              "type": "uint256"
            },
            {
              "internalType": "uint256",
              "name": "contractEnd",
              "type": "uint256"
            },
            {
              "internalType": "int256",
              "name": "lat",
              "type": "int256"
            },
            {
              "internalType": "int256",
              "name": "lng",
              "type": "int256"
            },
            {
              "internalType": "bool",
              "name": "comply",
              "type": "bool"
            },
            {
              "internalType": "bool",
              "name": "paid",
              "type": "bool"
            }
          ],
          "internalType": "struct PayByLocation.Employee[]",
          "name": "",
          "type": "tuple[]"
        }
      ],
      "stateMutability": "view",
      "type": "function"
    },
    {
      "inputs": [
        {
          "internalType": "int256",
          "name": "_lat",
          "type": "int256"
        },
        {
          "internalType": "int256",
          "name": "_lng",
          "type": "int256"
        }
      ],
      "name": "evaluate",
      "outputs": [],
      "stateMutability": "nonpayable",
      "type": "function"
    },
    {
      "inputs": [],
      "name": "getSender",
      "outputs": [
        {
          "internalType": "address",
          "name": "",
          "type": "address"
        }
      ],
      "stateMutability": "view",
      "type": "function"
    }
  ],
  "bytecode": "0x608060405234801561000f575f80fd5b5061189c8061001d5f395ff3fe608060405234801561000f575f80fd5b506004361061007b575f3560e01c80635e01eb5a116100595780635e01eb5a146100e9578063bca9a5c514610107578063d067894714610137578063f8bb49a11461016e5761007b565b80631abb590b1461007f5780631f35dba71461009b5780634abefa36146100cb575b5f80fd5b61009960048036038101906100949190610cc9565b61018a565b005b6100b560048036038101906100b09190610d6e565b61030e565b6040516100c29190610da8565b60405180910390f35b6100d361033e565b6040516100e09190610fdb565b60405180910390f35b6100f161054c565b6040516100fe9190610da8565b60405180910390f35b610121600480360381019061011c9190610d6e565b610553565b60405161012e91906110a8565b60405180910390f35b610151600480360381019061014c91906110c8565b6106d0565b604051610165989796959493929190611168565b60405180910390f35b610188600480360381019061018391906111eb565b6107b2565b005b5f61019361099b565b90505f6040518061010001604052808881526020018781526020018381526020018681526020018581526020018481526020016001151581526020015f15158152509050805f808a73ffffffffffffffffffffffffffffffffffffffff1673ffffffffffffffffffffffffffffffffffffffff1681526020019081526020015f205f820151815f0190816102279190611423565b506020820151816001015560408201518160020155606082015181600301556080820151816004015560a0820151816005015560c0820151816006015f6101000a81548160ff02191690831515021790555060e08201518160060160016101000a81548160ff0219169083151502179055509050508760015f60025481526020019081526020015f205f6101000a81548173ffffffffffffffffffffffffffffffffffffffff021916908373ffffffffffffffffffffffffffffffffffffffff16021790555060025f8154809291906102ff9061151f565b91905055505050505050505050565b6001602052805f5260405f205f915054906101000a900473ffffffffffffffffffffffffffffffffffffffff1681565b60605f60025467ffffffffffffffff81111561035d5761035c610b3f565b5b60405190808252806020026020018201604052801561039657816020015b610383610a7a565b81526020019060019003908161037b5790505b5090505f5b600254811015610544575f8060015f8481526020019081526020015f205f9054906101000a900473ffffffffffffffffffffffffffffffffffffffff1673ffffffffffffffffffffffffffffffffffffffff1673ffffffffffffffffffffffffffffffffffffffff1681526020019081526020015f20604051806101000160405290815f8201805461042c90611256565b80601f016020809104026020016040519081016040528092919081815260200182805461045890611256565b80156104a35780601f1061047a576101008083540402835291602001916104a3565b820191905f5260205f20905b81548152906001019060200180831161048657829003601f168201915b505050505081526020016001820154815260200160028201548152602001600382015481526020016004820154815260200160058201548152602001600682015f9054906101000a900460ff161515151581526020016006820160019054906101000a900460ff16151515158152505082828151811061052657610525611566565b5b6020026020010181905250808061053c9061151f565b91505061039b565b508091505090565b5f33905090565b61055b610a7a565b5f8060015f8581526020019081526020015f205f9054906101000a900473ffffffffffffffffffffffffffffffffffffffff1673ffffffffffffffffffffffffffffffffffffffff1673ffffffffffffffffffffffffffffffffffffffff1681526020019081526020015f20604051806101000160405290815f820180546105e290611256565b80601f016020809104026020016040519081016040528092919081815260200182805461060e90611256565b80156106595780601f1061063057610100808354040283529160200191610659565b820191905f5260205f20905b81548152906001019060200180831161063c57829003601f168201915b505050505081526020016001820154815260200160028201548152602001600382015481526020016004820154815260200160058201548152602001600682015f9054906101000a900460ff161515151581526020016006820160019054906101000a900460ff1615151515815250509050919050565b5f602052805f5260405f205f91509050805f0180546106ee90611256565b80601f016020809104026020016040519081016040528092919081815260200182805461071a90611256565b80156107655780601f1061073c57610100808354040283529160200191610765565b820191905f5260205f20905b81548152906001019060200180831161074857829003601f168201915b505050505090806001015490806002015490806003015490806004015490806005015490806006015f9054906101000a900460ff16908060060160019054906101000a900460ff16905088565b5f3390505f805f8373ffffffffffffffffffffffffffffffffffffffff1673ffffffffffffffffffffffffffffffffffffffff1681526020019081526020015f2090505f610903858584604051806101000160405290815f8201805461081790611256565b80601f016020809104026020016040519081016040528092919081815260200182805461084390611256565b801561088e5780601f106108655761010080835404028352916020019161088e565b820191905f5260205f20905b81548152906001019060200180831161087157829003601f168201915b505050505081526020016001820154815260200160028201548152602001600382015481526020016004820154815260200160058201548152602001600682015f9054906101000a900460ff161515151581526020016006820160019054906101000a900460ff1615151515815250506109a2565b905080826006015f6101000a81548160ff0219169083151502179055508080156109535750816003015461093561099b565b1015801561095257508160060160019054906101000a900460ff16155b5b1561097a5760018260060160016101000a81548160ff021916908315150217905550610994565b801580156109925750816003015461099061099b565b105b505b5050505050565b5f42905090565b5f806109b8858585608001518660a001516109cc565b905082602001518113159150509392505050565b5f80610a10600284876109df9190611593565b6109e99190611725565b600286896109f79190611593565b610a019190611725565b610a0b9190611790565b610a1e565b905080915050949350505050565b5f806002600184610a2f9190611790565b610a3991906117fe565b90508291505b81811215610a74578091506002818285610a5991906117fe565b610a639190611790565b610a6d91906117fe565b9050610a3f565b50919050565b604051806101000160405280606081526020015f81526020015f81526020015f81526020015f81526020015f81526020015f151581526020015f151581525090565b5f604051905090565b5f80fd5b5f80fd5b5f73ffffffffffffffffffffffffffffffffffffffff82169050919050565b5f610af682610acd565b9050919050565b610b0681610aec565b8114610b10575f80fd5b50565b5f81359050610b2181610afd565b92915050565b5f80fd5b5f80fd5b5f601f19601f8301169050919050565b7f4e487b71000000000000000000000000000000000000000000000000000000005f52604160045260245ffd5b610b7582610b2f565b810181811067ffffffffffffffff82111715610b9457610b93610b3f565b5b80604052505050565b5f610ba6610abc565b9050610bb28282610b6c565b919050565b5f67ffffffffffffffff821115610bd157610bd0610b3f565b5b610bda82610b2f565b9050602081019050919050565b828183375f83830152505050565b5f610c07610c0284610bb7565b610b9d565b905082815260208101848484011115610c2357610c22610b2b565b5b610c2e848285610be7565b509392505050565b5f82601f830112610c4a57610c49610b27565b5b8135610c5a848260208601610bf5565b91505092915050565b5f819050919050565b610c7581610c63565b8114610c7f575f80fd5b50565b5f81359050610c9081610c6c565b92915050565b5f819050919050565b610ca881610c96565b8114610cb2575f80fd5b50565b5f81359050610cc381610c9f565b92915050565b5f805f805f8060c08789031215610ce357610ce2610ac5565b5b5f610cf089828a01610b13565b965050602087013567ffffffffffffffff811115610d1157610d10610ac9565b5b610d1d89828a01610c36565b9550506040610d2e89828a01610c82565b9450506060610d3f89828a01610c82565b9350506080610d5089828a01610cb5565b92505060a0610d6189828a01610cb5565b9150509295509295509295565b5f60208284031215610d8357610d82610ac5565b5b5f610d9084828501610c82565b91505092915050565b610da281610aec565b82525050565b5f602082019050610dbb5f830184610d99565b92915050565b5f81519050919050565b5f82825260208201905092915050565b5f819050602082019050919050565b5f81519050919050565b5f82825260208201905092915050565b5f5b83811015610e21578082015181840152602081019050610e06565b5f8484015250505050565b5f610e3682610dea565b610e408185610df4565b9350610e50818560208601610e04565b610e5981610b2f565b840191505092915050565b610e6d81610c63565b82525050565b610e7c81610c96565b82525050565b5f8115159050919050565b610e9681610e82565b82525050565b5f61010083015f8301518482035f860152610eb78282610e2c565b9150506020830151610ecc6020860182610e64565b506040830151610edf6040860182610e64565b506060830151610ef26060860182610e64565b506080830151610f056080860182610e73565b5060a0830151610f1860a0860182610e73565b5060c0830151610f2b60c0860182610e8d565b5060e0830151610f3e60e0860182610e8d565b508091505092915050565b5f610f548383610e9c565b905092915050565b5f602082019050919050565b5f610f7282610dc1565b610f7c8185610dcb565b935083602082028501610f8e85610ddb565b805f5b85811015610fc95784840389528151610faa8582610f49565b9450610fb583610f5c565b925060208a01995050600181019050610f91565b50829750879550505050505092915050565b5f6020820190508181035f830152610ff38184610f68565b905092915050565b5f61010083015f8301518482035f8601526110168282610e2c565b915050602083015161102b6020860182610e64565b50604083015161103e6040860182610e64565b5060608301516110516060860182610e64565b5060808301516110646080860182610e73565b5060a083015161107760a0860182610e73565b5060c083015161108a60c0860182610e8d565b5060e083015161109d60e0860182610e8d565b508091505092915050565b5f6020820190508181035f8301526110c08184610ffb565b905092915050565b5f602082840312156110dd576110dc610ac5565b5b5f6110ea84828501610b13565b91505092915050565b5f82825260208201905092915050565b5f61110d82610dea565b61111781856110f3565b9350611127818560208601610e04565b61113081610b2f565b840191505092915050565b61114481610c63565b82525050565b61115381610c96565b82525050565b61116281610e82565b82525050565b5f610100820190508181035f830152611181818b611103565b9050611190602083018a61113b565b61119d604083018961113b565b6111aa606083018861113b565b6111b7608083018761114a565b6111c460a083018661114a565b6111d160c0830185611159565b6111de60e0830184611159565b9998505050505050505050565b5f806040838503121561120157611200610ac5565b5b5f61120e85828601610cb5565b925050602061121f85828601610cb5565b9150509250929050565b7f4e487b71000000000000000000000000000000000000000000000000000000005f52602260045260245ffd5b5f600282049050600182168061126d57607f821691505b6020821081036112805761127f611229565b5b50919050565b5f819050815f5260205f209050919050565b5f6020601f8301049050919050565b5f82821b905092915050565b5f600883026112e27fffffffffffffffffffffffffffffffffffffffffffffffffffffffffffffffff826112a7565b6112ec86836112a7565b95508019841693508086168417925050509392505050565b5f819050919050565b5f61132761132261131d84610c63565b611304565b610c63565b9050919050565b5f819050919050565b6113408361130d565b61135461134c8261132e565b8484546112b3565b825550505050565b5f90565b61136861135c565b611373818484611337565b505050565b5b818110156113965761138b5f82611360565b600181019050611379565b5050565b601f8211156113db576113ac81611286565b6113b584611298565b810160208510156113c4578190505b6113d86113d085611298565b830182611378565b50505b505050565b5f82821c905092915050565b5f6113fb5f19846008026113e0565b1980831691505092915050565b5f61141383836113ec565b9150826002028217905092915050565b61142c82610dea565b67ffffffffffffffff81111561144557611444610b3f565b5b61144f8254611256565b61145a82828561139a565b5f60209050601f83116001811461148b575f8415611479578287015190505b6114838582611408565b8655506114ea565b601f19841661149986611286565b5f5b828110156114c05784890151825560018201915060208501945060208101905061149b565b868310156114dd57848901516114d9601f8916826113ec565b8355505b6001600288020188555050505b505050505050565b7f4e487b71000000000000000000000000000000000000000000000000000000005f52601160045260245ffd5b5f61152982610c63565b91507fffffffffffffffffffffffffffffffffffffffffffffffffffffffffffffffff820361155b5761155a6114f2565b5b600182019050919050565b7f4e487b71000000000000000000000000000000000000000000000000000000005f52603260045260245ffd5b5f61159d82610c96565b91506115a883610c96565b925082820390508181125f8412168282135f8512151617156115cd576115cc6114f2565b5b92915050565b5f8160011c9050919050565b5f808291508390505b600185111561162857808604811115611604576116036114f2565b5b60018516156116135780820291505b8081029050611621856115d3565b94506115e8565b94509492505050565b5f825f811461164757600181146116515761165a565b6001915050611711565b82915050611711565b5081611668575f9050611711565b600190505f821360018114611683575f811461169b576116af565b828604831115611696576116956114f2565b5b6116af565b8286058312156116ae576116ad6114f2565b5b5b5060018316156116bd578190505b81820291506116cb836115d3565b92506116d9858484846115df565b9250905081850481115f821316156116f4576116f36114f2565b5b81840581125f8212161561170b5761170a6114f2565b5b81810290505b949350505050565b5f60ff82169050919050565b5f61172f82610c96565b915061173a83611719565b92506117887f7fffffffffffffffffffffffffffffffffffffffffffffffffffffffffffffff7f80000000000000000000000000000000000000000000000000000000000000008585611631565b905092915050565b5f61179a82610c96565b91506117a583610c96565b92508282019050828112155f8312168382125f8412151617156117cb576117ca6114f2565b5b92915050565b7f4e487b71000000000000000000000000000000000000000000000000000000005f52601260045260245ffd5b5f61180882610c96565b915061181383610c96565b925082611823576118226117d1565b5b60015f0383147f80000000000000000000000000000000000000000000000000000000000000008314161561185b5761185a6114f2565b5b82820590509291505056fea26469706673582212209d6f0e98b1095b0a288e42d5bd6377a2f3b0f290b5432189e7dce5f3be32b7db64736f6c63430008150033",
  "immutableReferences": {},
  "source": "// SPDX-License-Identifier: MIT\npragma solidity >=0.4.22 <0.9.0;\n\ncontract PayByLocation {\n \n        struct Employee {\n        string name;\n        uint256 distance;\n        uint256 registeredAt;\n        uint256 contractEnd;\n        int256 lat;\n        int256 lng;\n        bool comply;\n        bool paid;\n    }\n    \n    mapping(address => Employee) public employees;\n    mapping(uint => address) public employeesAddress;\n    uint employeeCount;\n\n    function addEmployee(\n        address _employeeAddress,\n        string memory _name,\n        uint256 _allowedDistance,\n        uint256 _contractEnd,\n        int256 _lat,\n        int256 _lng\n    ) public  {\n        uint256 time = timeteller();\n        Employee memory employee = Employee(\n            _name,\n            _allowedDistance,\n            time,\n            _contractEnd,\n            _lat,\n            _lng,\n            true,\n            false\n        );\n        employees[_employeeAddress] = employee;\n        employeesAddress[employeeCount] = _employeeAddress;\n        employeeCount++;\n\n    }\n\n    function getEmployee(uint index)\n        public\n        view\n        returns (Employee memory)\n    {\n        return (employees[employeesAddress[index]]);\n    }\n\n    function getEmployees()\n        public\n        view\n        returns (Employee[] memory)\n    {\n\n        Employee[] memory ret = new Employee[](employeeCount);\n        for (uint i = 0; i < employeeCount; i++) {\n            ret[i] = employees[employeesAddress[i]];\n        }\n        return ret;\n    \n    }\n    \n    function evaluate(int256 _lat, int256 _lng) public {\n        address empAddr = msg.sender;\n        Employee storage employee = employees[empAddr];\n        bool comply = isComplied(_lat, _lng, employee);\n        employee.comply = comply;\n\n        if (comply && (timeteller() >= employee.contractEnd && !employee.paid)) {\n            // Pay the employee\n            employee.paid = true;\n            // You may add payment logic here\n        } else if (!comply && (timeteller() < employee.contractEnd)) {\n            // Refund employer\n            // You may add refund logic here\n        }\n    }\n\n    function getDistance(\n        int256 _lat,\n        int256 _lng,\n        int256 _lat1,\n        int256 _lng1\n    ) private pure returns (int256 ) {\n        int256 dist = sqrt(((_lat - _lat1)**2) + ((_lng - _lng1)**2));\n        return dist;\n        // return 6;\n    }\n\n    function sqrt(int256 x) private pure returns (int256 y) {\n        int256 z = (x + 1) / 2;\n        y = x;\n        while (z <(y)) {\n            y = z;\n            z = (x / z + z) / 2;\n        }\n        return y;\n    }\n\n    function isComplied(\n        int256 _lat,\n        int256 _lng,\n        Employee memory _employee\n    ) private pure returns (bool) {\n        int256 distance = getDistance(\n            _lat,\n            _lng,\n            _employee.lat,\n            _employee.lng\n        );\n        return distance <= int(_employee.distance);\n    }\n\n    function getSender() public view returns (address) {\n        return msg.sender;\n    }\n\n    function timeteller() private view returns(uint){\n     return block.timestamp;\n }\n    \n}",
  "sourcePath": "C:\\Users\\Abel\\Documents\\10 Academy\\Refund-by-Location-Smart-Contract\\smart_contract\\truffle\\contracts\\PayByLocation.sol",
  "compiler": {
    "name": "solc",
    "version": "0.8.21+commit.d9974bed.Emscripten.clang"
  },
  "schemaVersion": "3.4.16",
  "updatedAt": "2024-02-10T01:38:10.822Z",
  "devdoc": {
    "kind": "dev",
    "methods": {},
    "version": 1
  },
  "userdoc": {
    "kind": "user",
    "methods": {},
    "version": 1
  }
}